{
  "contractName": "AccessToken",
  "abi": [
    {
      "inputs": [],
      "stateMutability": "nonpayable",
      "type": "constructor"
    },
    {
      "anonymous": false,
      "inputs": [
        {
          "indexed": true,
          "internalType": "address",
          "name": "owner",
          "type": "address"
        },
        {
          "indexed": true,
          "internalType": "address",
          "name": "approved",
          "type": "address"
        },
        {
          "indexed": true,
          "internalType": "uint256",
          "name": "tokenId",
          "type": "uint256"
        }
      ],
      "name": "Approval",
      "type": "event"
    },
    {
      "anonymous": false,
      "inputs": [
        {
          "indexed": true,
          "internalType": "address",
          "name": "owner",
          "type": "address"
        },
        {
          "indexed": true,
          "internalType": "address",
          "name": "operator",
          "type": "address"
        },
        {
          "indexed": false,
          "internalType": "bool",
          "name": "approved",
          "type": "bool"
        }
      ],
      "name": "ApprovalForAll",
      "type": "event"
    },
    {
      "anonymous": false,
      "inputs": [
        {
          "indexed": false,
          "internalType": "string",
          "name": "tokenuri",
          "type": "string"
        }
      ],
      "name": "TokenURI",
      "type": "event"
    },
    {
      "anonymous": false,
      "inputs": [
        {
          "indexed": true,
          "internalType": "address",
          "name": "from",
          "type": "address"
        },
        {
          "indexed": true,
          "internalType": "address",
          "name": "to",
          "type": "address"
        },
        {
          "indexed": true,
          "internalType": "uint256",
          "name": "tokenId",
          "type": "uint256"
        }
      ],
      "name": "Transfer",
      "type": "event"
    },
    {
      "inputs": [
        {
          "internalType": "address",
          "name": "to",
          "type": "address"
        },
        {
          "internalType": "uint256",
          "name": "tokenId",
          "type": "uint256"
        }
      ],
      "name": "approve",
      "outputs": [],
      "stateMutability": "nonpayable",
      "type": "function"
    },
    {
      "inputs": [
        {
          "internalType": "address",
          "name": "owner",
          "type": "address"
        }
      ],
      "name": "balanceOf",
      "outputs": [
        {
          "internalType": "uint256",
          "name": "",
          "type": "uint256"
        }
      ],
      "stateMutability": "view",
      "type": "function"
    },
    {
      "inputs": [
        {
          "internalType": "uint256",
          "name": "tokenId",
          "type": "uint256"
        }
      ],
      "name": "getApproved",
      "outputs": [
        {
          "internalType": "address",
          "name": "",
          "type": "address"
        }
      ],
      "stateMutability": "view",
      "type": "function"
    },
    {
      "inputs": [
        {
          "internalType": "address",
          "name": "owner",
          "type": "address"
        },
        {
          "internalType": "address",
          "name": "operator",
          "type": "address"
        }
      ],
      "name": "isApprovedForAll",
      "outputs": [
        {
          "internalType": "bool",
          "name": "",
          "type": "bool"
        }
      ],
      "stateMutability": "view",
      "type": "function"
    },
    {
      "inputs": [],
      "name": "name",
      "outputs": [
        {
          "internalType": "string",
          "name": "",
          "type": "string"
        }
      ],
      "stateMutability": "view",
      "type": "function"
    },
    {
      "inputs": [
        {
          "internalType": "uint256",
          "name": "tokenId",
          "type": "uint256"
        }
      ],
      "name": "ownerOf",
      "outputs": [
        {
          "internalType": "address",
          "name": "",
          "type": "address"
        }
      ],
      "stateMutability": "view",
      "type": "function"
    },
    {
      "inputs": [
        {
          "internalType": "address",
          "name": "from",
          "type": "address"
        },
        {
          "internalType": "address",
          "name": "to",
          "type": "address"
        },
        {
          "internalType": "uint256",
          "name": "tokenId",
          "type": "uint256"
        }
      ],
      "name": "safeTransferFrom",
      "outputs": [],
      "stateMutability": "nonpayable",
      "type": "function"
    },
    {
      "inputs": [
        {
          "internalType": "address",
          "name": "from",
          "type": "address"
        },
        {
          "internalType": "address",
          "name": "to",
          "type": "address"
        },
        {
          "internalType": "uint256",
          "name": "tokenId",
          "type": "uint256"
        },
        {
          "internalType": "bytes",
          "name": "_data",
          "type": "bytes"
        }
      ],
      "name": "safeTransferFrom",
      "outputs": [],
      "stateMutability": "nonpayable",
      "type": "function"
    },
    {
      "inputs": [
        {
          "internalType": "address",
          "name": "operator",
          "type": "address"
        },
        {
          "internalType": "bool",
          "name": "approved",
          "type": "bool"
        }
      ],
      "name": "setApprovalForAll",
      "outputs": [],
      "stateMutability": "nonpayable",
      "type": "function"
    },
    {
      "inputs": [
        {
          "internalType": "bytes4",
          "name": "interfaceId",
          "type": "bytes4"
        }
      ],
      "name": "supportsInterface",
      "outputs": [
        {
          "internalType": "bool",
          "name": "",
          "type": "bool"
        }
      ],
      "stateMutability": "view",
      "type": "function"
    },
    {
      "inputs": [],
      "name": "symbol",
      "outputs": [
        {
          "internalType": "string",
          "name": "",
          "type": "string"
        }
      ],
      "stateMutability": "view",
      "type": "function"
    },
    {
      "inputs": [
        {
          "internalType": "uint256",
          "name": "tokenId",
          "type": "uint256"
        }
      ],
      "name": "tokenURI",
      "outputs": [
        {
          "internalType": "string",
          "name": "",
          "type": "string"
        }
      ],
      "stateMutability": "view",
      "type": "function"
    },
    {
      "inputs": [
        {
          "internalType": "address",
          "name": "from",
          "type": "address"
        },
        {
          "internalType": "address",
          "name": "to",
          "type": "address"
        },
        {
          "internalType": "uint256",
          "name": "tokenId",
          "type": "uint256"
        }
      ],
      "name": "transferFrom",
      "outputs": [],
      "stateMutability": "nonpayable",
      "type": "function"
    },
    {
      "inputs": [
        {
          "internalType": "address",
          "name": "artist",
          "type": "address"
        },
        {
          "internalType": "string",
          "name": "tokenURI",
          "type": "string"
        },
        {
          "internalType": "uint256",
          "name": "creatorCode",
          "type": "uint256"
        }
      ],
      "name": "CreateLicense",
      "outputs": [
        {
          "internalType": "uint256",
          "name": "",
          "type": "uint256"
        }
      ],
      "stateMutability": "nonpayable",
      "type": "function"
    }
  ],
  "bytecode": "0x60806040523480156200001157600080fd5b506040518060400160405280600681526020017f4d797374697100000000000000000000000000000000000000000000000000008152506040518060400160405280600481526020017f4d79737400000000000000000000000000000000000000000000000000000000815250816000908051906020019062000096929190620000b8565b508060019080519060200190620000af929190620000b8565b505050620001cd565b828054620000c69062000197565b90600052602060002090601f016020900481019282620000ea576000855562000136565b82601f106200010557805160ff191683800117855562000136565b8280016001018555821562000136579182015b828111156200013557825182559160200191906001019062000118565b5b50905062000145919062000149565b5090565b5b80821115620001645760008160009055506001016200014a565b5090565b7f4e487b7100000000000000000000000000000000000000000000000000000000600052602260045260246000fd5b60006002820490506001821680620001b057607f821691505b60208210811415620001c757620001c662000168565b5b50919050565b612a1d80620001dd6000396000f3fe608060405234801561001057600080fd5b50600436106100ea5760003560e01c80636352211e1161008c578063a22cb46511610066578063a22cb4651461026f578063b88d4fde1461028b578063c87b56dd146102a7578063e985e9c5146102d7576100ea565b80636352211e146101f157806370a082311461022157806395d89b4114610251576100ea565b8063095ea7b3116100c8578063095ea7b31461016d5780630ec615d11461018957806323b872dd146101b957806342842e0e146101d5576100ea565b806301ffc9a7146100ef57806306fdde031461011f578063081812fc1461013d575b600080fd5b61010960048036038101906101049190611836565b610307565b604051610116919061187e565b60405180910390f35b6101276103e9565b6040516101349190611932565b60405180910390f35b6101576004803603810190610152919061198a565b61047b565b60405161016491906119f8565b60405180910390f35b61018760048036038101906101829190611a3f565b610500565b005b6101a3600480360381019061019e9190611bb4565b610618565b6040516101b09190611c32565b60405180910390f35b6101d360048036038101906101ce9190611c4d565b6106a7565b005b6101ef60048036038101906101ea9190611c4d565b610707565b005b61020b6004803603810190610206919061198a565b610727565b60405161021891906119f8565b60405180910390f35b61023b60048036038101906102369190611ca0565b6107d9565b6040516102489190611c32565b60405180910390f35b610259610891565b6040516102669190611932565b60405180910390f35b61028960048036038101906102849190611cf9565b610923565b005b6102a560048036038101906102a09190611dda565b610939565b005b6102c160048036038101906102bc919061198a565b61099b565b6040516102ce9190611932565b60405180910390f35b6102f160048036038101906102ec9190611e5d565b610a42565b6040516102fe919061187e565b60405180910390f35b60007f80ac58cd000000000000000000000000000000000000000000000000000000007bffffffffffffffffffffffffffffffffffffffffffffffffffffffff1916827bffffffffffffffffffffffffffffffffffffffffffffffffffffffff191614806103d257507f5b5e139f000000000000000000000000000000000000000000000000000000007bffffffffffffffffffffffffffffffffffffffffffffffffffffffff1916827bffffffffffffffffffffffffffffffffffffffffffffffffffffffff1916145b806103e257506103e182610ad6565b5b9050919050565b6060600080546103f890611ecc565b80601f016020809104026020016040519081016040528092919081815260200182805461042490611ecc565b80156104715780601f1061044657610100808354040283529160200191610471565b820191906000526020600020905b81548152906001019060200180831161045457829003601f168201915b5050505050905090565b600061048682610b40565b6104c5576040517f08c379a00000000000000000000000000000000000000000000000000000000081526004016104bc90611f70565b60405180910390fd5b6004600083815260200190815260200160002060009054906101000a900473ffffffffffffffffffffffffffffffffffffffff169050919050565b600061050b82610727565b90508073ffffffffffffffffffffffffffffffffffffffff168373ffffffffffffffffffffffffffffffffffffffff16141561057c576040517f08c379a000000000000000000000000000000000000000000000000000000000815260040161057390612002565b60405180910390fd5b8073ffffffffffffffffffffffffffffffffffffffff1661059b610bac565b73ffffffffffffffffffffffffffffffffffffffff1614806105ca57506105c9816105c4610bac565b610a42565b5b610609576040517f08c379a000000000000000000000000000000000000000000000000000000000815260040161060090612094565b60405180910390fd5b6106138383610bb4565b505050565b600080600654629896808461062d91906120e3565b610637919061213d565b90506106438582610c6d565b61064d8185610c8b565b6006600081548092919061066090612193565b91905055507fb4a6bfb48c3ae76f3f056c0591271a8564850844bfb72aa2f6f42099828d19f0846040516106949190611932565b60405180910390a1809150509392505050565b6106b86106b2610bac565b82610cb7565b6106f7576040517f08c379a00000000000000000000000000000000000000000000000000000000081526004016106ee9061224e565b60405180910390fd5b610702838383610d95565b505050565b61072283838360405180602001604052806000815250610939565b505050565b6000806002600084815260200190815260200160002060009054906101000a900473ffffffffffffffffffffffffffffffffffffffff169050600073ffffffffffffffffffffffffffffffffffffffff168173ffffffffffffffffffffffffffffffffffffffff1614156107d0576040517f08c379a00000000000000000000000000000000000000000000000000000000081526004016107c7906122e0565b60405180910390fd5b80915050919050565b60008073ffffffffffffffffffffffffffffffffffffffff168273ffffffffffffffffffffffffffffffffffffffff16141561084a576040517f08c379a000000000000000000000000000000000000000000000000000000000815260040161084190612372565b60405180910390fd5b600360008373ffffffffffffffffffffffffffffffffffffffff1673ffffffffffffffffffffffffffffffffffffffff168152602001908152602001600020549050919050565b6060600180546108a090611ecc565b80601f01602080910402602001604051908101604052809291908181526020018280546108cc90611ecc565b80156109195780601f106108ee57610100808354040283529160200191610919565b820191906000526020600020905b8154815290600101906020018083116108fc57829003601f168201915b5050505050905090565b61093561092e610bac565b8383610ffc565b5050565b61094a610944610bac565b83610cb7565b610989576040517f08c379a00000000000000000000000000000000000000000000000000000000081526004016109809061224e565b60405180910390fd5b61099584848484611169565b50505050565b60606109a682610b40565b6109e5576040517f08c379a00000000000000000000000000000000000000000000000000000000081526004016109dc90612404565b60405180910390fd5b60006109ef6111c5565b90506000815111610a0f5760405180602001604052806000815250610a3a565b80610a19846111dc565b604051602001610a2a929190612460565b6040516020818303038152906040525b915050919050565b6000600560008473ffffffffffffffffffffffffffffffffffffffff1673ffffffffffffffffffffffffffffffffffffffff16815260200190815260200160002060008373ffffffffffffffffffffffffffffffffffffffff1673ffffffffffffffffffffffffffffffffffffffff16815260200190815260200160002060009054906101000a900460ff16905092915050565b60007f01ffc9a7000000000000000000000000000000000000000000000000000000007bffffffffffffffffffffffffffffffffffffffffffffffffffffffff1916827bffffffffffffffffffffffffffffffffffffffffffffffffffffffff1916149050919050565b60008073ffffffffffffffffffffffffffffffffffffffff166002600084815260200190815260200160002060009054906101000a900473ffffffffffffffffffffffffffffffffffffffff1673ffffffffffffffffffffffffffffffffffffffff1614159050919050565b600033905090565b816004600083815260200190815260200160002060006101000a81548173ffffffffffffffffffffffffffffffffffffffff021916908373ffffffffffffffffffffffffffffffffffffffff160217905550808273ffffffffffffffffffffffffffffffffffffffff16610c2783610727565b73ffffffffffffffffffffffffffffffffffffffff167f8c5be1e5ebec7d5bd14f71427d1e84f3dd0314c0f7b2291e5b200ac8c7c3b92560405160405180910390a45050565b610c8782826040518060200160405280600081525061133d565b5050565b80600760008481526020019081526020016000209080519060200190610cb2929190611727565b505050565b6000610cc282610b40565b610d01576040517f08c379a0000000000000000000000000000000000000000000000000000000008152600401610cf8906124f6565b60405180910390fd5b6000610d0c83610727565b90508073ffffffffffffffffffffffffffffffffffffffff168473ffffffffffffffffffffffffffffffffffffffff161480610d7b57508373ffffffffffffffffffffffffffffffffffffffff16610d638461047b565b73ffffffffffffffffffffffffffffffffffffffff16145b80610d8c5750610d8b8185610a42565b5b91505092915050565b8273ffffffffffffffffffffffffffffffffffffffff16610db582610727565b73ffffffffffffffffffffffffffffffffffffffff1614610e0b576040517f08c379a0000000000000000000000000000000000000000000000000000000008152600401610e0290612588565b60405180910390fd5b600073ffffffffffffffffffffffffffffffffffffffff168273ffffffffffffffffffffffffffffffffffffffff161415610e7b576040517f08c379a0000000000000000000000000000000000000000000000000000000008152600401610e729061261a565b60405180910390fd5b610e86838383611398565b610e91600082610bb4565b6001600360008573ffffffffffffffffffffffffffffffffffffffff1673ffffffffffffffffffffffffffffffffffffffff1681526020019081526020016000206000828254610ee1919061263a565b925050819055506001600360008473ffffffffffffffffffffffffffffffffffffffff1673ffffffffffffffffffffffffffffffffffffffff1681526020019081526020016000206000828254610f38919061213d565b92505081905550816002600083815260200190815260200160002060006101000a81548173ffffffffffffffffffffffffffffffffffffffff021916908373ffffffffffffffffffffffffffffffffffffffff160217905550808273ffffffffffffffffffffffffffffffffffffffff168473ffffffffffffffffffffffffffffffffffffffff167fddf252ad1be2c89b69c2b068fc378daa952ba7f163c4a11628f55a4df523b3ef60405160405180910390a4610ff783838361139d565b505050565b8173ffffffffffffffffffffffffffffffffffffffff168373ffffffffffffffffffffffffffffffffffffffff16141561106b576040517f08c379a0000000000000000000000000000000000000000000000000000000008152600401611062906126ba565b60405180910390fd5b80600560008573ffffffffffffffffffffffffffffffffffffffff1673ffffffffffffffffffffffffffffffffffffffff16815260200190815260200160002060008473ffffffffffffffffffffffffffffffffffffffff1673ffffffffffffffffffffffffffffffffffffffff16815260200190815260200160002060006101000a81548160ff0219169083151502179055508173ffffffffffffffffffffffffffffffffffffffff168373ffffffffffffffffffffffffffffffffffffffff167f17307eab39ab6107e8899845ad3d59bd9653f200f220920489ca2b5937696c318360405161115c919061187e565b60405180910390a3505050565b611174848484610d95565b611180848484846113a2565b6111bf576040517f08c379a00000000000000000000000000000000000000000000000000000000081526004016111b69061274c565b60405180910390fd5b50505050565b606060405180602001604052806000815250905090565b60606000821415611224576040518060400160405280600181526020017f30000000000000000000000000000000000000000000000000000000000000008152509050611338565b600082905060005b6000821461125657808061123f90612193565b915050600a8261124f919061279b565b915061122c565b60008167ffffffffffffffff81111561127257611271611a89565b5b6040519080825280601f01601f1916602001820160405280156112a45781602001600182028036833780820191505090505b5090505b60008514611331576001826112bd919061263a565b9150600a856112cc91906127cc565b60306112d8919061213d565b60f81b8183815181106112ee576112ed6127fd565b5b60200101907effffffffffffffffffffffffffffffffffffffffffffffffffffffffffffff1916908160001a905350600a8561132a919061279b565b94506112a8565b8093505050505b919050565b611347838361152a565b61135460008484846113a2565b611393576040517f08c379a000000000000000000000000000000000000000000000000000000000815260040161138a9061274c565b60405180910390fd5b505050565b505050565b505050565b60006113c38473ffffffffffffffffffffffffffffffffffffffff16611704565b1561151d578373ffffffffffffffffffffffffffffffffffffffff1663150b7a026113ec610bac565b8786866040518563ffffffff1660e01b815260040161140e9493929190612881565b6020604051808303816000875af192505050801561144a57506040513d601f19601f8201168201806040525081019061144791906128e2565b60015b6114cd573d806000811461147a576040519150601f19603f3d011682016040523d82523d6000602084013e61147f565b606091505b506000815114156114c5576040517f08c379a00000000000000000000000000000000000000000000000000000000081526004016114bc9061274c565b60405180910390fd5b805181602001fd5b63150b7a0260e01b7bffffffffffffffffffffffffffffffffffffffffffffffffffffffff1916817bffffffffffffffffffffffffffffffffffffffffffffffffffffffff191614915050611522565b600190505b949350505050565b600073ffffffffffffffffffffffffffffffffffffffff168273ffffffffffffffffffffffffffffffffffffffff16141561159a576040517f08c379a00000000000000000000000000000000000000000000000000000000081526004016115919061295b565b60405180910390fd5b6115a381610b40565b156115e3576040517f08c379a00000000000000000000000000000000000000000000000000000000081526004016115da906129c7565b60405180910390fd5b6115ef60008383611398565b6001600360008473ffffffffffffffffffffffffffffffffffffffff1673ffffffffffffffffffffffffffffffffffffffff168152602001908152602001600020600082825461163f919061213d565b92505081905550816002600083815260200190815260200160002060006101000a81548173ffffffffffffffffffffffffffffffffffffffff021916908373ffffffffffffffffffffffffffffffffffffffff160217905550808273ffffffffffffffffffffffffffffffffffffffff16600073ffffffffffffffffffffffffffffffffffffffff167fddf252ad1be2c89b69c2b068fc378daa952ba7f163c4a11628f55a4df523b3ef60405160405180910390a46117006000838361139d565b5050565b6000808273ffffffffffffffffffffffffffffffffffffffff163b119050919050565b82805461173390611ecc565b90600052602060002090601f016020900481019282611755576000855561179c565b82601f1061176e57805160ff191683800117855561179c565b8280016001018555821561179c579182015b8281111561179b578251825591602001919060010190611780565b5b5090506117a991906117ad565b5090565b5b808211156117c65760008160009055506001016117ae565b5090565b6000604051905090565b600080fd5b600080fd5b60007fffffffff0000000000000000000000000000000000000000000000000000000082169050919050565b611813816117de565b811461181e57600080fd5b50565b6000813590506118308161180a565b92915050565b60006020828403121561184c5761184b6117d4565b5b600061185a84828501611821565b91505092915050565b60008115159050919050565b61187881611863565b82525050565b6000602082019050611893600083018461186f565b92915050565b600081519050919050565b600082825260208201905092915050565b60005b838110156118d35780820151818401526020810190506118b8565b838111156118e2576000848401525b50505050565b6000601f19601f8301169050919050565b600061190482611899565b61190e81856118a4565b935061191e8185602086016118b5565b611927816118e8565b840191505092915050565b6000602082019050818103600083015261194c81846118f9565b905092915050565b6000819050919050565b61196781611954565b811461197257600080fd5b50565b6000813590506119848161195e565b92915050565b6000602082840312156119a05761199f6117d4565b5b60006119ae84828501611975565b91505092915050565b600073ffffffffffffffffffffffffffffffffffffffff82169050919050565b60006119e2826119b7565b9050919050565b6119f2816119d7565b82525050565b6000602082019050611a0d60008301846119e9565b92915050565b611a1c816119d7565b8114611a2757600080fd5b50565b600081359050611a3981611a13565b92915050565b60008060408385031215611a5657611a556117d4565b5b6000611a6485828601611a2a565b9250506020611a7585828601611975565b9150509250929050565b600080fd5b600080fd5b7f4e487b7100000000000000000000000000000000000000000000000000000000600052604160045260246000fd5b611ac1826118e8565b810181811067ffffffffffffffff82111715611ae057611adf611a89565b5b80604052505050565b6000611af36117ca565b9050611aff8282611ab8565b919050565b600067ffffffffffffffff821115611b1f57611b1e611a89565b5b611b28826118e8565b9050602081019050919050565b82818337600083830152505050565b6000611b57611b5284611b04565b611ae9565b905082815260208101848484011115611b7357611b72611a84565b5b611b7e848285611b35565b509392505050565b600082601f830112611b9b57611b9a611a7f565b5b8135611bab848260208601611b44565b91505092915050565b600080600060608486031215611bcd57611bcc6117d4565b5b6000611bdb86828701611a2a565b935050602084013567ffffffffffffffff811115611bfc57611bfb6117d9565b5b611c0886828701611b86565b9250506040611c1986828701611975565b9150509250925092565b611c2c81611954565b82525050565b6000602082019050611c476000830184611c23565b92915050565b600080600060608486031215611c6657611c656117d4565b5b6000611c7486828701611a2a565b9350506020611c8586828701611a2a565b9250506040611c9686828701611975565b9150509250925092565b600060208284031215611cb657611cb56117d4565b5b6000611cc484828501611a2a565b91505092915050565b611cd681611863565b8114611ce157600080fd5b50565b600081359050611cf381611ccd565b92915050565b60008060408385031215611d1057611d0f6117d4565b5b6000611d1e85828601611a2a565b9250506020611d2f85828601611ce4565b9150509250929050565b600067ffffffffffffffff821115611d5457611d53611a89565b5b611d5d826118e8565b9050602081019050919050565b6000611d7d611d7884611d39565b611ae9565b905082815260208101848484011115611d9957611d98611a84565b5b611da4848285611b35565b509392505050565b600082601f830112611dc157611dc0611a7f565b5b8135611dd1848260208601611d6a565b91505092915050565b60008060008060808587031215611df457611df36117d4565b5b6000611e0287828801611a2a565b9450506020611e1387828801611a2a565b9350506040611e2487828801611975565b925050606085013567ffffffffffffffff811115611e4557611e446117d9565b5b611e5187828801611dac565b91505092959194509250565b60008060408385031215611e7457611e736117d4565b5b6000611e8285828601611a2a565b9250506020611e9385828601611a2a565b9150509250929050565b7f4e487b7100000000000000000000000000000000000000000000000000000000600052602260045260246000fd5b60006002820490506001821680611ee457607f821691505b60208210811415611ef857611ef7611e9d565b5b50919050565b7f4552433732313a20617070726f76656420717565727920666f72206e6f6e657860008201527f697374656e7420746f6b656e0000000000000000000000000000000000000000602082015250565b6000611f5a602c836118a4565b9150611f6582611efe565b604082019050919050565b60006020820190508181036000830152611f8981611f4d565b9050919050565b7f4552433732313a20617070726f76616c20746f2063757272656e74206f776e6560008201527f7200000000000000000000000000000000000000000000000000000000000000602082015250565b6000611fec6021836118a4565b9150611ff782611f90565b604082019050919050565b6000602082019050818103600083015261201b81611fdf565b9050919050565b7f4552433732313a20617070726f76652063616c6c6572206973206e6f74206f7760008201527f6e6572206e6f7220617070726f76656420666f7220616c6c0000000000000000602082015250565b600061207e6038836118a4565b915061208982612022565b604082019050919050565b600060208201905081810360008301526120ad81612071565b9050919050565b7f4e487b7100000000000000000000000000000000000000000000000000000000600052601160045260246000fd5b60006120ee82611954565b91506120f983611954565b9250817fffffffffffffffffffffffffffffffffffffffffffffffffffffffffffffffff0483118215151615612132576121316120b4565b5b828202905092915050565b600061214882611954565b915061215383611954565b9250827fffffffffffffffffffffffffffffffffffffffffffffffffffffffffffffffff03821115612188576121876120b4565b5b828201905092915050565b600061219e82611954565b91507fffffffffffffffffffffffffffffffffffffffffffffffffffffffffffffffff8214156121d1576121d06120b4565b5b600182019050919050565b7f4552433732313a207472616e736665722063616c6c6572206973206e6f74206f60008201527f776e6572206e6f7220617070726f766564000000000000000000000000000000602082015250565b60006122386031836118a4565b9150612243826121dc565b604082019050919050565b600060208201905081810360008301526122678161222b565b9050919050565b7f4552433732313a206f776e657220717565727920666f72206e6f6e657869737460008201527f656e7420746f6b656e0000000000000000000000000000000000000000000000602082015250565b60006122ca6029836118a4565b91506122d58261226e565b604082019050919050565b600060208201905081810360008301526122f9816122bd565b9050919050565b7f4552433732313a2062616c616e636520717565727920666f7220746865207a6560008201527f726f206164647265737300000000000000000000000000000000000000000000602082015250565b600061235c602a836118a4565b915061236782612300565b604082019050919050565b6000602082019050818103600083015261238b8161234f565b9050919050565b7f4552433732314d657461646174613a2055524920717565727920666f72206e6f60008201527f6e6578697374656e7420746f6b656e0000000000000000000000000000000000602082015250565b60006123ee602f836118a4565b91506123f982612392565b604082019050919050565b6000602082019050818103600083015261241d816123e1565b9050919050565b600081905092915050565b600061243a82611899565b6124448185612424565b93506124548185602086016118b5565b80840191505092915050565b600061246c828561242f565b9150612478828461242f565b91508190509392505050565b7f4552433732313a206f70657261746f7220717565727920666f72206e6f6e657860008201527f697374656e7420746f6b656e0000000000000000000000000000000000000000602082015250565b60006124e0602c836118a4565b91506124eb82612484565b604082019050919050565b6000602082019050818103600083015261250f816124d3565b9050919050565b7f4552433732313a207472616e736665722066726f6d20696e636f72726563742060008201527f6f776e6572000000000000000000000000000000000000000000000000000000602082015250565b60006125726025836118a4565b915061257d82612516565b604082019050919050565b600060208201905081810360008301526125a181612565565b9050919050565b7f4552433732313a207472616e7366657220746f20746865207a65726f2061646460008201527f7265737300000000000000000000000000000000000000000000000000000000602082015250565b60006126046024836118a4565b915061260f826125a8565b604082019050919050565b60006020820190508181036000830152612633816125f7565b9050919050565b600061264582611954565b915061265083611954565b925082821015612663576126626120b4565b5b828203905092915050565b7f4552433732313a20617070726f766520746f2063616c6c657200000000000000600082015250565b60006126a46019836118a4565b91506126af8261266e565b602082019050919050565b600060208201905081810360008301526126d381612697565b9050919050565b7f4552433732313a207472616e7366657220746f206e6f6e20455243373231526560008201527f63656976657220696d706c656d656e7465720000000000000000000000000000602082015250565b60006127366032836118a4565b9150612741826126da565b604082019050919050565b6000602082019050818103600083015261276581612729565b9050919050565b7f4e487b7100000000000000000000000000000000000000000000000000000000600052601260045260246000fd5b60006127a682611954565b91506127b183611954565b9250826127c1576127c061276c565b5b828204905092915050565b60006127d782611954565b91506127e283611954565b9250826127f2576127f161276c565b5b828206905092915050565b7f4e487b7100000000000000000000000000000000000000000000000000000000600052603260045260246000fd5b600081519050919050565b600082825260208201905092915050565b60006128538261282c565b61285d8185612837565b935061286d8185602086016118b5565b612876816118e8565b840191505092915050565b600060808201905061289660008301876119e9565b6128a360208301866119e9565b6128b06040830185611c23565b81810360608301526128c28184612848565b905095945050505050565b6000815190506128dc8161180a565b92915050565b6000602082840312156128f8576128f76117d4565b5b6000612906848285016128cd565b91505092915050565b7f4552433732313a206d696e7420746f20746865207a65726f2061646472657373600082015250565b60006129456020836118a4565b91506129508261290f565b602082019050919050565b6000602082019050818103600083015261297481612938565b9050919050565b7f4552433732313a20746f6b656e20616c7265616479206d696e74656400000000600082015250565b60006129b1601c836118a4565b91506129bc8261297b565b602082019050919050565b600060208201905081810360008301526129e0816129a4565b905091905056fea26469706673582212208872217c031ba4209b5a3583ba8dfefe81fff18419a7573e28aa87f1ebd0b66064736f6c634300080c0033",
  "immutableReferences": {},
  "source": "pragma solidity ^0.8.7;\n// SPDX-License-Identifier: MIT\n\nimport \"@openzeppelin/contracts/token/ERC721/ERC721.sol\";\n\n\n\ncontract AccessToken is ERC721 {\n    uint256 counter;\n    mapping (uint256 => string) private _tokenURIs;\n\n    constructor()  ERC721(\"Mystiq\", \"Myst\") {\n\n    }\n    event TokenURI(string tokenuri);\n\n    function _setTokenURI(uint256 tokenId,string memory tokenURI)internal virtual{\n        _tokenURIs[tokenId] = tokenURI;\n\n    }\n    function CreateLicense(address artist, string memory tokenURI,uint256 creatorCode)public returns(uint256)\n    {\n        uint256 newItemId = creatorCode * 10000000 +counter;\n        _safeMint(artist, newItemId);\n        _setTokenURI(newItemId, tokenURI);\n        counter++;\n        emit TokenURI(tokenURI);\n\n        return newItemId;\n    }\n}",
  "sourcePath": "D:\\OpenSource\\BlockChain\\Projects\\Mystiq\\contracts\\AccessToken.sol",
  "compiler": {
    "name": "solc",
    "version": "0.8.12+commit.f00d7308.Emscripten.clang"
  },
  "schemaVersion": "3.4.5",
  "updatedAt": "2022-03-08T09:49:08.089Z",
  "devdoc": {
    "kind": "dev",
    "methods": {
      "approve(address,uint256)": {
        "details": "See {IERC721-approve}."
      },
      "balanceOf(address)": {
        "details": "See {IERC721-balanceOf}."
      },
      "getApproved(uint256)": {
        "details": "See {IERC721-getApproved}."
      },
      "isApprovedForAll(address,address)": {
        "details": "See {IERC721-isApprovedForAll}."
      },
      "name()": {
        "details": "See {IERC721Metadata-name}."
      },
      "ownerOf(uint256)": {
        "details": "See {IERC721-ownerOf}."
      },
      "safeTransferFrom(address,address,uint256)": {
        "details": "See {IERC721-safeTransferFrom}."
      },
      "safeTransferFrom(address,address,uint256,bytes)": {
        "details": "See {IERC721-safeTransferFrom}."
      },
      "setApprovalForAll(address,bool)": {
        "details": "See {IERC721-setApprovalForAll}."
      },
      "supportsInterface(bytes4)": {
        "details": "See {IERC165-supportsInterface}."
      },
      "symbol()": {
        "details": "See {IERC721Metadata-symbol}."
      },
      "tokenURI(uint256)": {
        "details": "See {IERC721Metadata-tokenURI}."
      },
      "transferFrom(address,address,uint256)": {
        "details": "See {IERC721-transferFrom}."
      }
    },
    "version": 1
  },
  "userdoc": {
    "kind": "user",
    "methods": {},
    "version": 1
  }
}